{
  "address": "0x22e01C58089Ad61c7B6689F8190dE520C33a5b71",
  "abi": [
    {
      "inputs": [
        {
          "internalType": "address",
          "name": "_nftContract",
          "type": "address"
        }
      ],
      "stateMutability": "nonpayable",
      "type": "constructor"
    },
    {
      "anonymous": false,
      "inputs": [
        {
          "indexed": true,
          "internalType": "uint256",
          "name": "tokenId",
          "type": "uint256"
        },
        {
          "indexed": true,
          "internalType": "address",
          "name": "seller",
          "type": "address"
        }
      ],
      "name": "ItemCanceled",
      "type": "event"
    },
    {
      "anonymous": false,
      "inputs": [
        {
          "indexed": true,
          "internalType": "uint256",
          "name": "tokenId",
          "type": "uint256"
        },
        {
          "indexed": true,
          "internalType": "address",
          "name": "seller",
          "type": "address"
        },
        {
          "indexed": false,
          "internalType": "uint256",
          "name": "price",
          "type": "uint256"
        }
      ],
      "name": "ItemListed",
      "type": "event"
    },
    {
      "anonymous": false,
      "inputs": [
        {
          "indexed": true,
          "internalType": "uint256",
          "name": "tokenId",
          "type": "uint256"
        },
        {
          "indexed": true,
          "internalType": "address",
          "name": "buyer",
          "type": "address"
        },
        {
          "indexed": true,
          "internalType": "address",
          "name": "seller",
          "type": "address"
        },
        {
          "indexed": false,
          "internalType": "uint256",
          "name": "price",
          "type": "uint256"
        }
      ],
      "name": "ItemSold",
      "type": "event"
    },
    {
      "inputs": [
        {
          "internalType": "uint256",
          "name": "tokenId",
          "type": "uint256"
        }
      ],
      "name": "buyItem",
      "outputs": [],
      "stateMutability": "payable",
      "type": "function"
    },
    {
      "inputs": [
        {
          "internalType": "uint256",
          "name": "tokenId",
          "type": "uint256"
        }
      ],
      "name": "cancelListing",
      "outputs": [],
      "stateMutability": "nonpayable",
      "type": "function"
    },
    {
      "inputs": [
        {
          "internalType": "uint256",
          "name": "tokenId",
          "type": "uint256"
        }
      ],
      "name": "getListing",
      "outputs": [
        {
          "components": [
            {
              "internalType": "address",
              "name": "seller",
              "type": "address"
            },
            {
              "internalType": "uint256",
              "name": "price",
              "type": "uint256"
            },
            {
              "internalType": "bool",
              "name": "isActive",
              "type": "bool"
            }
          ],
          "internalType": "struct NFTMarketplace.Listing",
          "name": "",
          "type": "tuple"
        }
      ],
      "stateMutability": "view",
      "type": "function"
    },
    {
      "inputs": [
        {
          "internalType": "uint256",
          "name": "tokenId",
          "type": "uint256"
        }
      ],
      "name": "isListed",
      "outputs": [
        {
          "internalType": "bool",
          "name": "",
          "type": "bool"
        }
      ],
      "stateMutability": "view",
      "type": "function"
    },
    {
      "inputs": [
        {
          "internalType": "uint256",
          "name": "tokenId",
          "type": "uint256"
        },
        {
          "internalType": "uint256",
          "name": "price",
          "type": "uint256"
        }
      ],
      "name": "listItem",
      "outputs": [],
      "stateMutability": "nonpayable",
      "type": "function"
    },
    {
      "inputs": [
        {
          "internalType": "uint256",
          "name": "",
          "type": "uint256"
        }
      ],
      "name": "listings",
      "outputs": [
        {
          "internalType": "address",
          "name": "seller",
          "type": "address"
        },
        {
          "internalType": "uint256",
          "name": "price",
          "type": "uint256"
        },
        {
          "internalType": "bool",
          "name": "isActive",
          "type": "bool"
        }
      ],
      "stateMutability": "view",
      "type": "function"
    },
    {
      "inputs": [],
      "name": "nftContract",
      "outputs": [
        {
          "internalType": "contract IERC721",
          "name": "",
          "type": "address"
        }
      ],
      "stateMutability": "view",
      "type": "function"
    }
  ],
  "transactionHash": "0x9f4cedcda9f4519af0603022d1e0d0f26a4df05c6f1399cafbbf39250f0f812e",
  "args": [
    "0xE64F4391c95eAcA69a9e7AFb7E1831DFFeE09423"
  ],
  "numDeployments": 1,
  "solcInputHash": "0f80cc741f5e05b5503526fb988c9db7",
  "bytecode": "0x608060405234801561001057600080fd5b50604051610c47380380610c4783398101604081905261002f91610059565b6001600081905580546001600160a01b0319166001600160a01b0392909216919091179055610089565b60006020828403121561006b57600080fd5b81516001600160a01b038116811461008257600080fd5b9392505050565b610baf806100986000396000f3fe6080604052600436106100705760003560e01c8063d56d229d1161004e578063d56d229d1461015d578063de74e57b14610195578063e7fb74c714610206578063fcce48831461021957600080fd5b8063107a274a14610075578063305a67a81461011b578063883efa671461013d575b600080fd5b34801561008157600080fd5b506100e9610090366004610ac5565b6040805160608082018352600080835260208084018290529284018190529384526002808352938390208351918201845280546001600160a01b0316825260018101549282019290925292015460ff1615159082015290565b6040805182516001600160a01b0316815260208084015190820152918101511515908201526060015b60405180910390f35b34801561012757600080fd5b5061013b610136366004610ac5565b61025d565b005b34801561014957600080fd5b5061013b610158366004610ade565b610376565b34801561016957600080fd5b5060015461017d906001600160a01b031681565b6040516001600160a01b039091168152602001610112565b3480156101a157600080fd5b506101df6101b0366004610ac5565b60026020819052600091825260409091208054600182015491909201546001600160a01b039092169160ff1683565b604080516001600160a01b0390941684526020840192909252151590820152606001610112565b61013b610214366004610ac5565b6106a2565b34801561022557600080fd5b5061024d610234366004610ac5565b6000908152600260208190526040909120015460ff1690565b6040519015158152602001610112565b600081815260026020818152604092839020835160608101855281546001600160a01b031681526001820154928101929092529091015460ff161515918101829052906102e35760405162461bcd60e51b815260206004820152600f60248201526e125d195b481b9bdd081b1a5cdd1959608a1b60448201526064015b60405180910390fd5b80516001600160a01b0316331461032d5760405162461bcd60e51b815260206004820152600e60248201526d2737ba103a34329039b2b63632b960911b60448201526064016102da565b6000828152600260208190526040808320909101805460ff1916905551339184917f5cb412c9620981e00377453c7d6131d2122a006cd48f53786863f87020c8b5699190a35050565b600081116103c65760405162461bcd60e51b815260206004820152601c60248201527f5072696365206d7573742062652067726561746572207468616e20300000000060448201526064016102da565b6001546040516331a9108f60e11b81526004810184905233916001600160a01b031690636352211e90602401602060405180830381865afa15801561040f573d6000803e3d6000fd5b505050506040513d601f19601f820116820180604052508101906104339190610b00565b6001600160a01b0316146104795760405162461bcd60e51b815260206004820152600d60248201526c2737ba103a34329037bbb732b960991b60448201526064016102da565b60015460405163020604bf60e21b81526004810184905230916001600160a01b03169063081812fc90602401602060405180830381865afa1580156104c2573d6000803e3d6000fd5b505050506040513d601f19601f820116820180604052508101906104e69190610b00565b6001600160a01b03161480610568575060015460405163e985e9c560e01b81523360048201523060248201526001600160a01b039091169063e985e9c590604401602060405180830381865afa158015610544573d6000803e3d6000fd5b505050506040513d601f19601f820116820180604052508101906105689190610b30565b6105b45760405162461bcd60e51b815260206004820152601860248201527f4d61726b6574706c616365206e6f7420617070726f766564000000000000000060448201526064016102da565b6000828152600260208190526040909120015460ff16156106085760405162461bcd60e51b815260206004820152600e60248201526d105b1c9958591e481b1a5cdd195960921b60448201526064016102da565b6040805160608101825233808252602080830185815260018486018181526000898152600280865290889020965187546001600160a01b0319166001600160a01b03909116178755925191860191909155519301805460ff191693151593909317909255915183815284917fc93edc6ee14cd6c0c2842099adfa8953b237dbdad304ba28e96dce8a7f2a828c910160405180910390a35050565b6106aa610a6c565b600081815260026020818152604092839020835160608101855281546001600160a01b031681526001820154928101929092529091015460ff1615159181018290529061072b5760405162461bcd60e51b815260206004820152600f60248201526e125d195b481b9bdd081b1a5cdd1959608a1b60448201526064016102da565b80602001513410156107765760405162461bcd60e51b8152602060048201526014602482015273125b9cdd59999a58da595b9d081c185e5b595b9d60621b60448201526064016102da565b80516001546040516331a9108f60e11b8152600481018590526001600160a01b039283169290911690636352211e90602401602060405180830381865afa1580156107c5573d6000803e3d6000fd5b505050506040513d601f19601f820116820180604052508101906107e99190610b00565b6001600160a01b03161461083f5760405162461bcd60e51b815260206004820152601960248201527f53656c6c6572206e6f206c6f6e676572206f776e73204e46540000000000000060448201526064016102da565b60008281526002602081905260409182902001805460ff1916905560015482519151632142170760e11b81526001600160a01b039283166004820152336024820152604481018590529116906342842e0e90606401600060405180830381600087803b1580156108ae57600080fd5b505af11580156108c2573d6000803e3d6000fd5b50505050600081600001516001600160a01b0316826020015160405160006040518083038185875af1925050503d806000811461091b576040519150601f19603f3d011682016040523d82523d6000602084013e610920565b606091505b50509050806109635760405162461bcd60e51b815260206004820152600f60248201526e151c985b9cd9995c8819985a5b1959608a1b60448201526064016102da565b8160200151341115610a0757602082015160009033906109839034610b52565b604051600081818185875af1925050503d80600081146109bf576040519150601f19603f3d011682016040523d82523d6000602084013e6109c4565b606091505b5050905080610a055760405162461bcd60e51b815260206004820152600d60248201526c1499599d5b990819985a5b1959609a1b60448201526064016102da565b505b81600001516001600160a01b0316336001600160a01b0316847f04ddd54c6b746e69ba87f862311f7670bd1d7276846778ac81cd38747b27a7468560200151604051610a5591815260200190565b60405180910390a45050610a696001600055565b50565b600260005403610abe5760405162461bcd60e51b815260206004820152601f60248201527f5265656e7472616e637947756172643a207265656e7472616e742063616c6c0060448201526064016102da565b6002600055565b600060208284031215610ad757600080fd5b5035919050565b60008060408385031215610af157600080fd5b50508035926020909101359150565b600060208284031215610b1257600080fd5b81516001600160a01b0381168114610b2957600080fd5b9392505050565b600060208284031215610b4257600080fd5b81518015158114610b2957600080fd5b81810381811115610b7357634e487b7160e01b600052601160045260246000fd5b9291505056fea2646970667358221220137359077a64ee51a9586ae8b619957bdd4f625a7b58bb9d7cfd7dd80cc8680f64736f6c63430008110033",
  "devdoc": {
    "details": "Sellers keep NFTs until sold, marketplace only needs approval",
    "kind": "dev",
    "methods": {
      "buyItem(uint256)": {
        "params": {
          "tokenId": "The ID of the NFT to buy"
        }
      },
      "cancelListing(uint256)": {
        "params": {
          "tokenId": "The ID of the NFT to cancel"
        }
      },
      "constructor": {
        "params": {
          "_nftContract": "Address of the MyNFT contract"
        }
      },
      "getListing(uint256)": {
        "params": {
          "tokenId": "The ID of the NFT"
        },
        "returns": {
          "_0": "listing The listing struct"
        }
      },
      "isListed(uint256)": {
        "params": {
          "tokenId": "The ID of the NFT"
        },
        "returns": {
          "_0": "bool True if listed and active"
        }
      },
      "listItem(uint256,uint256)": {
        "params": {
          "price": "The price in wei (ETH)",
          "tokenId": "The ID of the NFT to list"
        }
      }
    },
    "title": "NFTMarketplace",
    "version": 1
  },
  "userdoc": {
    "kind": "user",
    "methods": {
      "buyItem(uint256)": {
        "notice": "Buy a listed NFT"
      },
      "cancelListing(uint256)": {
        "notice": "Cancel a listing"
      },
      "constructor": {
        "notice": "Constructor sets the NFT contract address"
      },
      "getListing(uint256)": {
        "notice": "Get listing information"
      },
      "isListed(uint256)": {
        "notice": "Check if an NFT is listed"
      },
      "listItem(uint256,uint256)": {
        "notice": "List an NFT for sale"
      }
    },
    "notice": "Simple escrowless NFT marketplace for MyNFT contract",
    "version": 1
  },
  "storageLayout": {
    "storage": [
      {
        "astId": 10,
        "contract": "contracts/NFTMarketplace.sol:NFTMarketplace",
        "label": "_status",
        "offset": 0,
        "slot": "0",
        "type": "t_uint256"
      },
      {
        "astId": 209,
        "contract": "contracts/NFTMarketplace.sol:NFTMarketplace",
        "label": "nftContract",
        "offset": 0,
        "slot": "1",
        "type": "t_contract(IERC721)180"
      },
      {
        "astId": 214,
        "contract": "contracts/NFTMarketplace.sol:NFTMarketplace",
        "label": "listings",
        "offset": 0,
        "slot": "2",
        "type": "t_mapping(t_uint256,t_struct(Listing)206_storage)"
      }
    ],
    "types": {
      "t_address": {
        "encoding": "inplace",
        "label": "address",
        "numberOfBytes": "20"
      },
      "t_bool": {
        "encoding": "inplace",
        "label": "bool",
        "numberOfBytes": "1"
      },
      "t_contract(IERC721)180": {
        "encoding": "inplace",
        "label": "contract IERC721",
        "numberOfBytes": "20"
      },
      "t_mapping(t_uint256,t_struct(Listing)206_storage)": {
        "encoding": "mapping",
        "key": "t_uint256",
        "label": "mapping(uint256 => struct NFTMarketplace.Listing)",
        "numberOfBytes": "32",
        "value": "t_struct(Listing)206_storage"
      },
      "t_struct(Listing)206_storage": {
        "encoding": "inplace",
        "label": "struct NFTMarketplace.Listing",
        "members": [
          {
            "astId": 201,
            "contract": "contracts/NFTMarketplace.sol:NFTMarketplace",
            "label": "seller",
            "offset": 0,
            "slot": "0",
            "type": "t_address"
          },
          {
            "astId": 203,
            "contract": "contracts/NFTMarketplace.sol:NFTMarketplace",
            "label": "price",
            "offset": 0,
            "slot": "1",
            "type": "t_uint256"
          },
          {
            "astId": 205,
            "contract": "contracts/NFTMarketplace.sol:NFTMarketplace",
            "label": "isActive",
            "offset": 0,
            "slot": "2",
            "type": "t_bool"
          }
        ],
        "numberOfBytes": "96"
      },
      "t_uint256": {
        "encoding": "inplace",
        "label": "uint256",
        "numberOfBytes": "32"
      }
    }
  }
}