{
  "address": "0x08353DAb91741a56430Da413e7DCcbff7F2d0A37",
  "abi": [
    {
      "inputs": [],
      "name": "CalldataMustHaveValidPayload",
      "type": "error"
    },
    {
      "inputs": [],
      "name": "CalldataOverOrUnderFlow",
      "type": "error"
    },
    {
      "inputs": [],
      "name": "CanNotPickMedianOfEmptyArray",
      "type": "error"
    },
    {
      "inputs": [],
      "name": "DataPackageTimestampMustNotBeZero",
      "type": "error"
    },
    {
      "inputs": [],
      "name": "DataPackageTimestampsMustBeEqual",
      "type": "error"
    },
    {
      "inputs": [],
      "name": "DataTimestampCannotBeZero",
      "type": "error"
    },
    {
      "inputs": [],
      "name": "EachSignerMustProvideTheSameValue",
      "type": "error"
    },
    {
      "inputs": [],
      "name": "EmptyCalldataPointersArr",
      "type": "error"
    },
    {
      "inputs": [],
      "name": "GetDataServiceIdNotImplemented",
      "type": "error"
    },
    {
      "inputs": [],
      "name": "IncorrectUnsignedMetadataSize",
      "type": "error"
    },
    {
      "inputs": [
        {
          "internalType": "uint256",
          "name": "receivedSignersCount",
          "type": "uint256"
        },
        {
          "internalType": "uint256",
          "name": "requiredSignersCount",
          "type": "uint256"
        }
      ],
      "name": "InsufficientNumberOfUniqueSigners",
      "type": "error"
    },
    {
      "inputs": [],
      "name": "InvalidCalldataPointer",
      "type": "error"
    },
    {
      "inputs": [
        {
          "internalType": "bytes32",
          "name": "signedHash",
          "type": "bytes32"
        }
      ],
      "name": "InvalidSignature",
      "type": "error"
    },
    {
      "inputs": [],
      "name": "RedstonePayloadMustHaveAtLeastOneDataPackage",
      "type": "error"
    },
    {
      "inputs": [
        {
          "internalType": "address",
          "name": "receivedSigner",
          "type": "address"
        }
      ],
      "name": "SignerNotAuthorised",
      "type": "error"
    },
    {
      "inputs": [],
      "name": "TimestampsMustBeEqual",
      "type": "error"
    },
    {
      "inputs": [
        {
          "internalType": "uint256",
          "name": "valueByteSize",
          "type": "uint256"
        }
      ],
      "name": "TooLargeValueByteSize",
      "type": "error"
    },
    {
      "inputs": [
        {
          "internalType": "uint256[]",
          "name": "values",
          "type": "uint256[]"
        }
      ],
      "name": "aggregateValues",
      "outputs": [
        {
          "internalType": "uint256",
          "name": "",
          "type": "uint256"
        }
      ],
      "stateMutability": "view",
      "type": "function"
    },
    {
      "inputs": [],
      "name": "extractTimestampsAndAssertAllAreEqual",
      "outputs": [
        {
          "internalType": "uint256",
          "name": "extractedTimestamp",
          "type": "uint256"
        }
      ],
      "stateMutability": "pure",
      "type": "function"
    },
    {
      "inputs": [
        {
          "internalType": "address",
          "name": "signerAddress",
          "type": "address"
        }
      ],
      "name": "getAuthorisedSignerIndex",
      "outputs": [
        {
          "internalType": "uint8",
          "name": "",
          "type": "uint8"
        }
      ],
      "stateMutability": "view",
      "type": "function"
    },
    {
      "inputs": [],
      "name": "getBtcPrice",
      "outputs": [
        {
          "internalType": "uint256",
          "name": "",
          "type": "uint256"
        }
      ],
      "stateMutability": "view",
      "type": "function"
    },
    {
      "inputs": [],
      "name": "getDataServiceId",
      "outputs": [
        {
          "internalType": "string",
          "name": "",
          "type": "string"
        }
      ],
      "stateMutability": "view",
      "type": "function"
    },
    {
      "inputs": [],
      "name": "getEthPrice",
      "outputs": [
        {
          "internalType": "uint256",
          "name": "",
          "type": "uint256"
        }
      ],
      "stateMutability": "view",
      "type": "function"
    },
    {
      "inputs": [],
      "name": "getMultiplePrices",
      "outputs": [
        {
          "internalType": "uint256",
          "name": "ethPrice",
          "type": "uint256"
        },
        {
          "internalType": "uint256",
          "name": "btcPrice",
          "type": "uint256"
        }
      ],
      "stateMutability": "view",
      "type": "function"
    },
    {
      "inputs": [],
      "name": "getUniqueSignersThreshold",
      "outputs": [
        {
          "internalType": "uint8",
          "name": "",
          "type": "uint8"
        }
      ],
      "stateMutability": "view",
      "type": "function"
    },
    {
      "inputs": [
        {
          "internalType": "uint256",
          "name": "receivedTimestampMilliseconds",
          "type": "uint256"
        }
      ],
      "name": "validateTimestamp",
      "outputs": [],
      "stateMutability": "view",
      "type": "function"
    }
  ],
  "transactionHash": "0x3d42b563141b5fbb194677613b8a61632c7f3fb57113073b097ebbee4381a4e6",
  "args": [],
  "numDeployments": 1,
  "solcInputHash": "ab460a26d756d19c0299d3728b990899",
  "bytecode": "0x608060405234801561001057600080fd5b506111cd806100206000396000f3fe608060405234801561001057600080fd5b50600436106100935760003560e01c8063b24ebfcc11610066578063b24ebfcc146100e8578063c274583a146100fb578063d94dc27e1461012f578063f50b2efe1461014c578063f90c49241461016157600080fd5b80633a3610bc146100985780633ce142f5146100b357806355a547d5146100d857806367c9b017146100e0575b600080fd5b6100a0610168565b6040519081526020015b60405180910390f35b6100c66100c1366004610f73565b6101e2565b60405160ff90911681526020016100aa565b6100a0610239565b6100a0610347565b6100a06100f6366004610fb2565b610386565b604080518082018252601281527172656473746f6e652d6d61696e2d64656d6f60701b602082015290516100aa9190611070565b610137610397565b604080519283526020830191909152016100aa565b61015f61015a3660046110be565b610457565b005b60016100c6565b604080516001808252818301909252600091829190602080830190803683370190505090506242544360e81b816000815181106101a7576101a76110d7565b60200260200101818152505060006101be8261051e565b9050806000815181106101d3576101d36110d7565b60200260200101519250505090565b60006001600160a01b038216730c39486f770b26f5527bbbf942726537986cd7eb0361021057506000919050565b6040516303b1166f60e61b81526001600160a01b03831660048201526024015b60405180910390fd5b600080610244610540565b90506000610251826105ee565b925061ffff169050600081900361027b57604051632154bfcf60e21b815260040160405180910390fd5b60005b818110156103415760006102918461063d565b90506000806102a1606887611103565b905060006102af8236611116565b9050803592508265ffffffffffff166000036102de57604051630336dc9d60e41b815260040160405180910390fd5b876000036102f6578265ffffffffffff16975061031e565b878365ffffffffffff161461031e5760405163d9d1f46560e01b815260040160405180910390fd5b6103288488611103565b965050505050808061033990611129565b91505061027e565b50505090565b604080516001808252818301909252600091829190602080830190803683370190505090506208aa8960eb1b816000815181106101a7576101a76110d7565b600061039182610679565b92915050565b6040805160028082526060820183526000928392839290916020830190803683370190505090506208aa8960eb1b816000815181106103d8576103d86110d7565b6020026020010181815250506242544360e81b816001815181106103fe576103fe6110d7565b60200260200101818152505060006104158261051e565b90508060008151811061042a5761042a6110d7565b602002602001015181600181518110610445576104456110d7565b60200260200101519350935050509091565b6000610465426103e8611142565b9050620dbba0828211156104c5578061047e8484611116565b11156104c05760405162461bcd60e51b8152602060048201526011602482015270151a5b595cdd185b5c081d1bdbc81bdb19607a1b6044820152606401610230565b505050565b806104d08385611116565b11156104c05760405162461bcd60e51b815260206004820152601b60248201527f54696d657374616d7020746f6f2066617220696e2066757475726500000000006044820152606401610230565b606060008061052c84610684565b9150915061053981610457565b5092915050565b60006602ed57011e0000601f1936013581161480610571576040516373bb264f60e11b815260040160405180910390fd5b6000366029111561059557604051632bcb7bc560e11b815260040160405180910390fd5b50602819360135600060096105b0600362ffffff8516611103565b6105ba9190611103565b9050366105c8600283611103565b11156105e75760405163c30a7bd760e01b815260040160405180910390fd5b9392505050565b600080806105fd602085611103565b90503681111561062057604051632bcb7bc560e11b815260040160405180910390fd5b3681900335925082610633600286611103565b9250925050915091565b600080600061064b8461089f565b9092509050604e61065d826020611103565b6106679084611142565b6106719190611103565b949350505050565b6000610391826108f2565b6060600080835167ffffffffffffffff8111156106a3576106a3610f9c565b6040519080825280602002602001820160405280156106cc578160200160208202803683370190505b5090506000845167ffffffffffffffff8111156106eb576106eb610f9c565b604051908082528060200260200182016040528015610714578160200160208202803683370190505b5090506000855167ffffffffffffffff81111561073357610733610f9c565b60405190808252806020026020018201604052801561076657816020015b60608152602001906001900390816107515790505b509050600160005b87518110156107df578167ffffffffffffffff81111561079057610790610f9c565b6040519080825280602002602001820160405280156107b9578160200160208202803683370190505b508382815181106107cc576107cc6110d7565b602090810291909101015260010161076e565b5060006107ea610540565b905060006107f7826105ee565b60405190935061ffff909116915060005b8281101561088657600061081f8c8a8a8a89610a16565b909550905060008190036108465760405163dfb25a7960e01b815260040160405180910390fd5b898114610876578960000361085d57809950610876565b60405163265e23a160e11b815260040160405180910390fd5b5060208201604052600101610808565b506108918588610ca1565b985050505050505050915091565b60008080808060206108b2604188611103565b6108bc9190611103565b6108c69036611116565b8035935090506108d7600382611116565b62ffffff9390931696923563ffffffff169550919350505050565b6000815160020361094957600282600181518110610912576109126110d7565b60200260200101518360008151811061092d5761092d6110d7565b602002602001015161093f9190611103565b610391919061116f565b815160000361096b57604051639e198af960e01b815260040160405180910390fd5b61097482610db0565b600060028351610984919061116f565b9050600283516109949190611183565b6000036109f45760008382815181106109af576109af6110d7565b6020026020010151846001846109c59190611116565b815181106109d5576109d56110d7565b60200260200101516109e79190611103565b905061067160028261116f565b828181518110610a0657610a066110d7565b6020026020010151915050919050565b6000806000806000610a278661089f565b909250905060008060608180600d610a40602088611103565b610a4a9089611142565b610a549190611103565b91506000610a6360688d611103565b610a6d9036611116565b9050600083610a7d60418f611103565b610a879190611103565b610a919036611116565b9050610a9d8482610ab0565b9450836020860120955081359250610ad4565b60408051838152602081850181019092526000910183838237601f19019392505050565b8265ffffffffffff169a50610af58660418f610af09190611103565b610dfe565b9650610b00876101e2565b60ff16995050505050505050604e86610b199190611103565b955060008060005b84811015610c8e576020610b35858b611103565b610b3f9190611103565b9850610b4b8985610f20565b909350915060005b8d51811015610c85578d8181518110610b6e57610b6e6110d7565b60200260200101518403610c7d5760008c8281518110610b9057610b906110d7565b60200260200101519050610ba981896001901b16151590565b158015610bd25750600160ff168e8381518110610bc857610bc86110d7565b6020026020010151105b15610c7757838c8381518110610bea57610bea6110d7565b60200260200101518f8481518110610c0457610c046110d7565b602002602001015181518110610c1c57610c1c6110d7565b6020026020010181815250508d8281518110610c3a57610c3a6110d7565b602002602001018051809190610c4f90611129565b9052506001881b81178d8381518110610c6a57610c6a6110d7565b6020026020010181815250505b50610c85565b600101610b53565b50600101610b21565b5050508594505050509550959350505050565b60606000835167ffffffffffffffff811115610cbf57610cbf610f9c565b604051908082528060200260200182016040528015610ce8578160200160208202803683370190505b509050600160005b8551811015610da65781858281518110610d0c57610d0c6110d7565b60200260200101511015610d5957848181518110610d2c57610d2c6110d7565b602002602001015182604051632b13aef560e01b8152600401610230929190918252602082015260400190565b6000610d7d878381518110610d7057610d706110d7565b6020026020010151610386565b905080848381518110610d9257610d926110d7565b602090810291909101015250600101610cf0565b5090949350505050565b8051602082016020820281019150805b82811015610df857815b81811015610def578151815180821015610de5578084528183525b5050602001610dca565b50602001610dc0565b50505050565b60003682900380359060208101359060400135831a601b8114801590610e28575060ff8116601c14155b15610e4957604051633335be5d60e11b815260048101879052602401610230565b7f7fffffffffffffffffffffffffffffff5d576e7357a4501ddfe92f46681b20a0821115610e8d57604051633335be5d60e11b815260048101879052602401610230565b60408051600081526020810180835288905260ff831691810191909152606081018490526080810183905260019060a0016020604051602081039080840390855afa158015610ee0573d6000803e3d6000fd5b5050604051601f1901519450506001600160a01b038416610f1757604051633335be5d60e11b815260048101879052602401610230565b50505092915050565b60008080610f2e8536611116565b9050803592506020810135915060218410610f5f576040516360007e2160e11b815260048101859052602401610230565b8360200360080282901c9150509250929050565b600060208284031215610f8557600080fd5b81356001600160a01b03811681146105e757600080fd5b634e487b7160e01b600052604160045260246000fd5b60006020808385031215610fc557600080fd5b823567ffffffffffffffff80821115610fdd57600080fd5b818501915085601f830112610ff157600080fd5b81358181111561100357611003610f9c565b8060051b604051601f19603f8301168101818110858211171561102857611028610f9c565b60405291825284820192508381018501918883111561104657600080fd5b938501935b828510156110645784358452938501939285019261104b565b98975050505050505050565b600060208083528351808285015260005b8181101561109d57858101830151858201604001528201611081565b506000604082860101526040601f19601f8301168501019250505092915050565b6000602082840312156110d057600080fd5b5035919050565b634e487b7160e01b600052603260045260246000fd5b634e487b7160e01b600052601160045260246000fd5b80820180821115610391576103916110ed565b81810381811115610391576103916110ed565b60006001820161113b5761113b6110ed565b5060010190565b8082028115828204841417610391576103916110ed565b634e487b7160e01b600052601260045260246000fd5b60008261117e5761117e611159565b500490565b60008261119257611192611159565b50069056fea26469706673582212208a80927621d4ce0e81bb4a8602c7d1a0ea4e905f509c0699f8eb514233e967ce64736f6c63430008110033",
  "devdoc": {
    "details": "Uses MainDemoConsumerBase for testnet compatibility",
    "kind": "dev",
    "methods": {
      "aggregateValues(uint256[])": {
        "details": "This function may be overridden by the child consumer contract. It should aggregate values from different signers to a single uint value. By default, it calculates the median value",
        "params": {
          "values": "An array of uint256 values from different signers"
        },
        "returns": {
          "_0": "Result of the aggregation in the form of a single number"
        }
      },
      "getBtcPrice()": {
        "returns": {
          "_0": "price The current BTC price in USD (8 decimals)"
        }
      },
      "getDataServiceId()": {
        "details": "This function must be implemented by the child consumer contract. It should return dataServiceId which DataServiceWrapper will use if not provided explicitly . If not overridden, value will always have to be provided explicitly in DataServiceWrapper.",
        "returns": {
          "_0": "dataServiceId being consumed by contract"
        }
      },
      "getEthPrice()": {
        "returns": {
          "_0": "price The current ETH price in USD (8 decimals)"
        }
      },
      "getMultiplePrices()": {
        "returns": {
          "btcPrice": "The current BTC price",
          "ethPrice": "The current ETH price"
        }
      },
      "getUniqueSignersThreshold()": {
        "details": "This function must be implemented by the child consumer contract.",
        "returns": {
          "_0": "The minimum required value of unique authorised signers"
        }
      },
      "validateTimestamp(uint256)": {
        "details": "Allows oracle data from up to 15 minutes in the past or future This is useful for local development where blockchain time may differ from real-time",
        "params": {
          "receivedTimestampMilliseconds": "Timestamp from the oracle data package"
        }
      }
    },
    "title": "PriceFeed",
    "version": 1
  },
  "userdoc": {
    "kind": "user",
    "methods": {
      "getBtcPrice()": {
        "notice": "Get the latest BTC/USD price"
      },
      "getEthPrice()": {
        "notice": "Get the latest ETH/USD price"
      },
      "getMultiplePrices()": {
        "notice": "Get multiple prices at once"
      },
      "validateTimestamp(uint256)": {
        "notice": "Override timestamp validation to allow more lenient checks"
      }
    },
    "notice": "Fetches real-time price data using RedStone Pull oracle",
    "version": 1
  },
  "storageLayout": {
    "storage": [],
    "types": null
  }
}